{
  "contractName": "DNS",
  "abi": [
    {
      "constant": true,
      "inputs": [
        {
          "name": "",
          "type": "uint256"
        }
      ],
      "name": "website_address",
      "outputs": [
        {
          "name": "",
          "type": "address"
        }
      ],
      "payable": false,
      "stateMutability": "view",
      "type": "function"
    },
    {
      "constant": true,
      "inputs": [],
      "name": "domain_name_length",
      "outputs": [
        {
          "name": "",
          "type": "uint256"
        }
      ],
      "payable": false,
      "stateMutability": "view",
      "type": "function"
    },
    {
      "constant": false,
      "inputs": [
        {
          "name": "_name",
          "type": "string"
        }
      ],
      "name": "createWebsite",
      "outputs": [],
      "payable": false,
      "stateMutability": "nonpayable",
      "type": "function"
    },
    {
      "constant": false,
      "inputs": [
        {
          "name": "_name",
          "type": "string"
        },
        {
          "name": "_file_address",
          "type": "string"
        }
      ],
      "name": "mapDNS",
      "outputs": [],
      "payable": false,
      "stateMutability": "nonpayable",
      "type": "function"
    },
    {
      "constant": false,
      "inputs": [
        {
          "name": "_name",
          "type": "string"
        },
        {
          "name": "_new_admin",
          "type": "address"
        }
      ],
      "name": "transferOwnership",
      "outputs": [],
      "payable": false,
      "stateMutability": "nonpayable",
      "type": "function"
    },
    {
      "constant": true,
      "inputs": [
        {
          "name": "_name",
          "type": "string"
        }
      ],
      "name": "checkDomainAvaibility",
      "outputs": [
        {
          "name": "",
          "type": "bool"
        }
      ],
      "payable": false,
      "stateMutability": "view",
      "type": "function"
    },
    {
      "constant": true,
      "inputs": [
        {
          "name": "_name",
          "type": "string"
        }
      ],
      "name": "getDomainAddress",
      "outputs": [
        {
          "name": "",
          "type": "string"
        }
      ],
      "payable": false,
      "stateMutability": "view",
      "type": "function"
    },
    {
      "constant": true,
      "inputs": [
        {
          "name": "_name",
          "type": "string"
        }
      ],
      "name": "getDomainOwner",
      "outputs": [
        {
          "name": "",
          "type": "address"
        }
      ],
      "payable": false,
      "stateMutability": "view",
      "type": "function"
    },
    {
      "constant": true,
      "inputs": [
        {
          "name": "_name",
          "type": "string"
        }
      ],
      "name": "getWebsiteAddress",
      "outputs": [
        {
          "name": "",
          "type": "address"
        }
      ],
      "payable": false,
      "stateMutability": "view",
      "type": "function"
    },
    {
      "constant": true,
      "inputs": [
        {
          "name": "_address",
          "type": "address"
        }
      ],
      "name": "getWebsiteName",
      "outputs": [
        {
          "name": "",
          "type": "string"
        }
      ],
      "payable": false,
      "stateMutability": "view",
      "type": "function"
    },
    {
      "constant": true,
      "inputs": [],
      "name": "getAllDomainAddress",
      "outputs": [
        {
          "name": "",
          "type": "address[]"
        }
      ],
      "payable": false,
      "stateMutability": "view",
      "type": "function"
    },
    {
      "constant": true,
      "inputs": [],
      "name": "getUserWebsites",
      "outputs": [
        {
          "name": "",
          "type": "address[]"
        }
      ],
      "payable": false,
      "stateMutability": "view",
      "type": "function"
    }
  ],
  "bytecode": "0x6080604052600060015534801561001557600080fd5b50612a8f806100256000396000f3006080604052600436106100ba576000357c0100000000000000000000000000000000000000000000000000000000900463ffffffff16806325970115146100bf57806325e554b51461016857806334fcd96d146101d15780633bec2b441461023d5780633c8803fa146102f9578063760c11ec14610366578063848ee2fd1461041557806394310e51146104be57806397591c5a146105a0578063bc5c3de3146105cb578063c0e793c21461064c578063e35ae2a5146106d5575b600080fd5b3480156100cb57600080fd5b50610126600480360381019080803590602001908201803590602001908080601f0160208091040260200160405190810160405280939291908181526020018383808284378201915050505050509192919290505050610741565b604051808273ffffffffffffffffffffffffffffffffffffffff1673ffffffffffffffffffffffffffffffffffffffff16815260200191505060405180910390f35b34801561017457600080fd5b506101cf600480360381019080803590602001908201803590602001908080601f016020809104026020016040519081016040528093929190818152602001838380828437820191505050505050919291929050505061085c565b005b3480156101dd57600080fd5b506101e6610d38565b6040518080602001828103825283818151815260200191508051906020019060200280838360005b8381101561022957808201518184015260208101905061020e565b505050509050019250505060405180910390f35b34801561024957600080fd5b5061027e600480360381019080803573ffffffffffffffffffffffffffffffffffffffff169060200190929190505050610dc6565b6040518080602001828103825283818151815260200191508051906020019080838360005b838110156102be5780820151818401526020810190506102a3565b50505050905090810190601f1680156102eb5780820380516001836020036101000a031916815260200191505b509250505060405180910390f35b34801561030557600080fd5b5061032460048036038101908080359060200190929190505050610ea7565b604051808273ffffffffffffffffffffffffffffffffffffffff1673ffffffffffffffffffffffffffffffffffffffff16815260200191505060405180910390f35b34801561037257600080fd5b50610413600480360381019080803590602001908201803590602001908080601f0160208091040260200160405190810160405280939291908181526020018383808284378201915050505050509192919290803590602001908201803590602001908080601f0160208091040260200160405190810160405280939291908181526020018383808284378201915050505050509192919290505050610ee5565b005b34801561042157600080fd5b5061047c600480360381019080803590602001908201803590602001908080601f01602080910402602001604051908101604052809392919081815260200183838082843782019150505050505091929192905050506110b4565b604051808273ffffffffffffffffffffffffffffffffffffffff1673ffffffffffffffffffffffffffffffffffffffff16815260200191505060405180910390f35b3480156104ca57600080fd5b50610525600480360381019080803590602001908201803590602001908080601f01602080910402602001604051908101604052809392919081815260200183838082843782019150505050505091929192905050506111cf565b6040518080602001828103825283818151815260200191508051906020019080838360005b8381101561056557808201518184015260208101905061054a565b50505050905090810190601f1680156105925780820380516001836020036101000a031916815260200191505b509250505060405180910390f35b3480156105ac57600080fd5b506105b5611362565b6040518082815260200191505060405180910390f35b3480156105d757600080fd5b50610632600480360381019080803590602001908201803590602001908080601f0160208091040260200160405190810160405280939291908181526020018383808284378201915050505050509192919290505050611368565b604051808215151515815260200191505060405180910390f35b34801561065857600080fd5b506106d3600480360381019080803590602001908201803590602001908080601f0160208091040260200160405190810160405280939291908181526020018383808284378201915050505050509192919290803573ffffffffffffffffffffffffffffffffffffffff1690602001909291905050506113eb565b005b3480156106e157600080fd5b506106ea6115e4565b6040518080602001828103825283818151815260200191508051906020019060200280838360005b8381101561072d578082015181840152602081019050610712565b505050509050019250505060405180910390f35b6000816007816040518082805190602001908083835b60208310151561077c5780518252602082019150602081019050602083039250610757565b6001836020036101000a038019825116818451168082178552505050505050905001915050908152602001604051809103902060009054906101000a900460ff1615156107c857600080fd5b6004836040518082805190602001908083835b60208310151561080057805182526020820191506020810190506020830392506107db565b6001836020036101000a038019825116818451168082178552505050505050905001915050908152602001604051809103902060009054906101000a900473ffffffffffffffffffffffffffffffffffffffff16915050919050565b60006007826040518082805190602001908083835b6020831015156108965780518252602082019150602081019050602083039250610871565b6001836020036101000a038019825116818451168082178552505050505050905001915050908152602001604051809103902060009054906101000a900460ff161515156108e357600080fd5b33826108ed6116af565b808373ffffffffffffffffffffffffffffffffffffffff1673ffffffffffffffffffffffffffffffffffffffff16815260200180602001828103825283818151815260200191508051906020019080838360005b8381101561095c578082015181840152602081019050610941565b50505050905090810190601f1680156109895780820380516001836020036101000a031916815260200191505b509350505050604051809103906000f0801580156109ab573d6000803e3d6000fd5b50905060028190806001815401808255809150509060018203906000526020600020016000909192909190916101000a81548173ffffffffffffffffffffffffffffffffffffffff021916908373ffffffffffffffffffffffffffffffffffffffff160217905550506000829080600181540180825580915050906001820390600052602060002001600090919290919091509080519060200190610a519291906116bf565b505060016000815480929190600101919050555060016007836040518082805190602001908083835b602083101515610a9f5780518252602082019150602081019050602083039250610a7a565b6001836020036101000a038019825116818451168082178552505050505050905001915050908152602001604051809103902060006101000a81548160ff02191690831515021790555081600560008373ffffffffffffffffffffffffffffffffffffffff1673ffffffffffffffffffffffffffffffffffffffff1681526020019081526020016000209080519060200190610b3c9291906116bf565b50336004836040518082805190602001908083835b602083101515610b765780518252602082019150602081019050602083039250610b51565b6001836020036101000a038019825116818451168082178552505050505050905001915050908152602001604051809103902060006101000a81548173ffffffffffffffffffffffffffffffffffffffff021916908373ffffffffffffffffffffffffffffffffffffffff160217905550600860003373ffffffffffffffffffffffffffffffffffffffff1673ffffffffffffffffffffffffffffffffffffffff1681526020019081526020016000208190806001815401808255809150509060018203906000526020600020016000909192909190916101000a81548173ffffffffffffffffffffffffffffffffffffffff021916908373ffffffffffffffffffffffffffffffffffffffff16021790555050806006836040518082805190602001908083835b602083101515610cc35780518252602082019150602081019050602083039250610c9e565b6001836020036101000a038019825116818451168082178552505050505050905001915050908152602001604051809103902060006101000a81548173ffffffffffffffffffffffffffffffffffffffff021916908373ffffffffffffffffffffffffffffffffffffffff1602179055505050565b60606002805480602002602001604051908101604052809291908181526020018280548015610dbc57602002820191906000526020600020905b8160009054906101000a900473ffffffffffffffffffffffffffffffffffffffff1673ffffffffffffffffffffffffffffffffffffffff1681526020019060010190808311610d72575b5050505050905090565b6060600560008373ffffffffffffffffffffffffffffffffffffffff1673ffffffffffffffffffffffffffffffffffffffff1681526020019081526020016000208054600181600116156101000203166002900480601f016020809104026020016040519081016040528092919081815260200182805460018160011615610100020316600290048015610e9b5780601f10610e7057610100808354040283529160200191610e9b565b820191906000526020600020905b815481529060010190602001808311610e7e57829003601f168201915b50505050509050919050565b600281815481101515610eb657fe5b906000526020600020016000915054906101000a900473ffffffffffffffffffffffffffffffffffffffff1681565b816004816040518082805190602001908083835b602083101515610f1e5780518252602082019150602081019050602083039250610ef9565b6001836020036101000a038019825116818451168082178552505050505050905001915050908152602001604051809103902060009054906101000a900473ffffffffffffffffffffffffffffffffffffffff1673ffffffffffffffffffffffffffffffffffffffff163373ffffffffffffffffffffffffffffffffffffffff16141515610fab57600080fd5b6007836040518082805190602001908083835b602083101515610fe35780518252602082019150602081019050602083039250610fbe565b6001836020036101000a038019825116818451168082178552505050505050905001915050908152602001604051809103902060009054906101000a900460ff16151561102f57600080fd5b816003846040518082805190602001908083835b6020831015156110685780518252602082019150602081019050602083039250611043565b6001836020036101000a038019825116818451168082178552505050505050905001915050908152602001604051809103902090805190602001906110ae9291906116bf565b50505050565b6000816007816040518082805190602001908083835b6020831015156110ef57805182526020820191506020810190506020830392506110ca565b6001836020036101000a038019825116818451168082178552505050505050905001915050908152602001604051809103902060009054906101000a900460ff16151561113b57600080fd5b6006836040518082805190602001908083835b602083101515611173578051825260208201915060208101905060208303925061114e565b6001836020036101000a038019825116818451168082178552505050505050905001915050908152602001604051809103902060009054906101000a900473ffffffffffffffffffffffffffffffffffffffff16915050919050565b6060816007816040518082805190602001908083835b60208310151561120a57805182526020820191506020810190506020830392506111e5565b6001836020036101000a038019825116818451168082178552505050505050905001915050908152602001604051809103902060009054906101000a900460ff16151561125657600080fd5b6003836040518082805190602001908083835b60208310151561128e5780518252602082019150602081019050602083039250611269565b6001836020036101000a03801982511681845116808217855250505050505090500191505090815260200160405180910390208054600181600116156101000203166002900480601f0160208091040260200160405190810160405280929190818152602001828054600181600116156101000203166002900480156113555780601f1061132a57610100808354040283529160200191611355565b820191906000526020600020905b81548152906001019060200180831161133857829003601f168201915b5050505050915050919050565b60015481565b60006007826040518082805190602001908083835b6020831015156113a2578051825260208201915060208101905060208303925061137d565b6001836020036101000a038019825116818451168082178552505050505050905001915050908152602001604051809103902060009054906101000a900460ff16159050919050565b816004816040518082805190602001908083835b60208310151561142457805182526020820191506020810190506020830392506113ff565b6001836020036101000a038019825116818451168082178552505050505050905001915050908152602001604051809103902060009054906101000a900473ffffffffffffffffffffffffffffffffffffffff1673ffffffffffffffffffffffffffffffffffffffff163373ffffffffffffffffffffffffffffffffffffffff161415156114b157600080fd5b6007836040518082805190602001908083835b6020831015156114e957805182526020820191506020810190506020830392506114c4565b6001836020036101000a038019825116818451168082178552505050505050905001915050908152602001604051809103902060009054906101000a900460ff16151561153557600080fd5b816004846040518082805190602001908083835b60208310151561156e5780518252602082019150602081019050602083039250611549565b6001836020036101000a038019825116818451168082178552505050505050905001915050908152602001604051809103902060006101000a81548173ffffffffffffffffffffffffffffffffffffffff021916908373ffffffffffffffffffffffffffffffffffffffff160217905550505050565b6060600860003373ffffffffffffffffffffffffffffffffffffffff1673ffffffffffffffffffffffffffffffffffffffff1681526020019081526020016000208054806020026020016040519081016040528092919081815260200182805480156116a557602002820191906000526020600020905b8160009054906101000a900473ffffffffffffffffffffffffffffffffffffffff1673ffffffffffffffffffffffffffffffffffffffff168152602001906001019080831161165b575b5050505050905090565b6040516112ff8061176583390190565b828054600181600116156101000203166002900490600052602060002090601f016020900481019282601f1061170057805160ff191683800117855561172e565b8280016001018555821561172e579182015b8281111561172d578251825591602001919060010190611712565b5b50905061173b919061173f565b5090565b61176191905b8082111561175d576000816000905550600101611745565b5090565b905600608060405260006006553480156200001657600080fd5b50604051620012ff380380620012ff8339810180604052810190808051906020019092919080518201929190505050816000806101000a81548173ffffffffffffffffffffffffffffffffffffffff021916908373ffffffffffffffffffffffffffffffffffffffff16021790555080600190805190602001906200009d929190620000a6565b50505062000155565b828054600181600116156101000203166002900490600052602060002090601f016020900481019282601f10620000e957805160ff19168380011785556200011a565b828001600101855582156200011a579182015b8281111562000119578251825591602001919060010190620000fc565b5b5090506200012991906200012d565b5090565b6200015291905b808211156200014e57600081600090555060010162000134565b5090565b90565b61119a80620001656000396000f300608060405260043610610099576000357c0100000000000000000000000000000000000000000000000000000000900463ffffffff168063248bfc3b1461009e578063464ed51c1461014d5780639526419a146101fc578063a62ffbc414610227578063a991005414610252578063cbcdc4ab146102bb578063ed7c238d1461034b578063f851a440146103f1578063f880680b14610448575b600080fd5b3480156100aa57600080fd5b5061014b600480360381019080803590602001908201803590602001908080601f0160208091040260200160405190810160405280939291908181526020018383808284378201915050505050509192919290803590602001908201803590602001908080601f016020809104026020016040519081016040528093929190818152602001838380828437820191505050505050919291929050505061052a565b005b34801561015957600080fd5b506101fa600480360381019080803590602001908201803590602001908080601f0160208091040260200160405190810160405280939291908181526020018383808284378201915050505050509192919290803590602001908201803590602001908080601f0160208091040260200160405190810160405280939291908181526020018383808284378201915050505050509192919290505050610802565b005b34801561020857600080fd5b506102116108e1565b6040518082815260200191505060405180910390f35b34801561023357600080fd5b5061023c6108eb565b6040518082815260200191505060405180910390f35b34801561025e57600080fd5b506102b9600480360381019080803590602001908201803590602001908080601f01602080910402602001604051908101604052809392919081815260200183838082843782019150505050505091929192905050506108f1565b005b3480156102c757600080fd5b506102d0610cdb565b6040518080602001828103825283818151815260200191508051906020019080838360005b838110156103105780820151818401526020810190506102f5565b50505050905090810190601f16801561033d5780820380516001836020036101000a031916815260200191505b509250505060405180910390f35b34801561035757600080fd5b5061037660048036038101908080359060200190929190505050610d79565b6040518080602001828103825283818151815260200191508051906020019080838360005b838110156103b657808201518184015260208101905061039b565b50505050905090810190601f1680156103e35780820380516001836020036101000a031916815260200191505b509250505060405180910390f35b3480156103fd57600080fd5b50610406610e44565b604051808273ffffffffffffffffffffffffffffffffffffffff1673ffffffffffffffffffffffffffffffffffffffff16815260200191505060405180910390f35b34801561045457600080fd5b506104af600480360381019080803590602001908201803590602001908080601f0160208091040260200160405190810160405280939291908181526020018383808284378201915050505050509192919290505050610e69565b6040518080602001828103825283818151815260200191508051906020019080838360005b838110156104ef5780820151818401526020810190506104d4565b50505050905090810190601f16801561051c5780820380516001836020036101000a031916815260200191505b509250505060405180910390f35b6000809054906101000a900473ffffffffffffffffffffffffffffffffffffffff1673ffffffffffffffffffffffffffffffffffffffff163373ffffffffffffffffffffffffffffffffffffffff1614151561058557600080fd5b8160606000829150600090506000825114156105a057600190505b6000811415156105af57600080fd5b6003856040518082805190602001908083835b6020831015156105e757805182526020820191506020810190506020830392506105c2565b6001836020036101000a038019825116818451168082178552505050505050905001915050908152602001604051809103902060009054906101000a900460ff1615151561063457600080fd5b836002866040518082805190602001908083835b60208310151561066d5780518252602082019150602081019050602083039250610648565b6001836020036101000a038019825116818451168082178552505050505050905001915050908152602001604051809103902090805190602001906106b3929190610ffa565b5060058590806001815401808255809150509060018203906000526020600020016000909192909190915090805190602001906106f1929190610ffa565b505060016003866040518082805190602001908083835b60208310151561072d5780518252602082019150602081019050602083039250610708565b6001836020036101000a038019825116818451168082178552505050505050905001915050908152602001604051809103902060006101000a81548160ff0219169083151502179055506006546004866040518082805190602001908083835b6020831015156107b2578051825260208201915060208101905060208303925061078d565b6001836020036101000a0380198251168184511680821785525050505050509050019150509081526020016040518091039020819055506006600081548092919060010191905055505050505050565b6000809054906101000a900473ffffffffffffffffffffffffffffffffffffffff1673ffffffffffffffffffffffffffffffffffffffff163373ffffffffffffffffffffffffffffffffffffffff1614151561085d57600080fd5b806002836040518082805190602001908083835b6020831015156108965780518252602082019150602081019050602083039250610871565b6001836020036101000a038019825116818451168082178552505050505050905001915050908152602001604051809103902090805190602001906108dc929190610ffa565b505050565b6000600654905090565b60065481565b6000806000809054906101000a900473ffffffffffffffffffffffffffffffffffffffff1673ffffffffffffffffffffffffffffffffffffffff163373ffffffffffffffffffffffffffffffffffffffff1614151561094f57600080fd5b6003836040518082805190602001908083835b6020831015156109875780518252602082019150602081019050602083039250610962565b6001836020036101000a038019825116818451168082178552505050505050905001915050908152602001604051809103902060009054906101000a900460ff1615156109d357600080fd5b60006003846040518082805190602001908083835b602083101515610a0d57805182526020820191506020810190506020830392506109e8565b6001836020036101000a038019825116818451168082178552505050505050905001915050908152602001604051809103902060006101000a81548160ff0219169083151502179055506003836040518082805190602001908083835b602083101515610a8f5780518252602082019150602081019050602083039250610a6a565b6001836020036101000a038019825116818451168082178552505050505050905001915050908152602001604051809103902060006101000a81549060ff02191690556004836040518082805190602001908083835b602083101515610b0a5780518252602082019150602081019050602083039250610ae5565b6001836020036101000a03801982511681845116808217855250505050505090500191505090815260200160405180910390205491506004836040518082805190602001908083835b602083101515610b785780518252602082019150602081019050602083039250610b53565b6001836020036101000a0380198251168184511680821785525050505050509050019150509081526020016040518091039020600090556002836040518082805190602001908083835b602083101515610be75780518252602082019150602081019050602083039250610bc2565b6001836020036101000a03801982511681845116808217855250505050505090500191505090815260200160405180910390206000610c26919061107a565b8190505b600160065403811015610c9957600560018201815481101515610c4957fe5b90600052602060002001600582815481101515610c6257fe5b906000526020600020019080546001816001161561010002031660029004610c8b9291906110c2565b508080600101915050610c2a565b6005600160065403815481101515610cad57fe5b906000526020600020016000610cc3919061107a565b60066000815480929190600190039190505550505050565b60018054600181600116156101000203166002900480601f016020809104026020016040519081016040528092919081815260200182805460018160011615610100020316600290048015610d715780601f10610d4657610100808354040283529160200191610d71565b820191906000526020600020905b815481529060010190602001808311610d5457829003601f168201915b505050505081565b606060065482101515610d8b57600080fd5b600582815481101515610d9a57fe5b906000526020600020018054600181600116156101000203166002900480601f016020809104026020016040519081016040528092919081815260200182805460018160011615610100020316600290048015610e385780601f10610e0d57610100808354040283529160200191610e38565b820191906000526020600020905b815481529060010190602001808311610e1b57829003601f168201915b50505050509050919050565b6000809054906101000a900473ffffffffffffffffffffffffffffffffffffffff1681565b60606003826040518082805190602001908083835b602083101515610ea35780518252602082019150602081019050602083039250610e7e565b6001836020036101000a038019825116818451168082178552505050505050905001915050908152602001604051809103902060009054906101000a900460ff161515610eef57600080fd5b6002826040518082805190602001908083835b602083101515610f275780518252602082019150602081019050602083039250610f02565b6001836020036101000a03801982511681845116808217855250505050505090500191505090815260200160405180910390208054600181600116156101000203166002900480601f016020809104026020016040519081016040528092919081815260200182805460018160011615610100020316600290048015610fee5780601f10610fc357610100808354040283529160200191610fee565b820191906000526020600020905b815481529060010190602001808311610fd157829003601f168201915b50505050509050919050565b828054600181600116156101000203166002900490600052602060002090601f016020900481019282601f1061103b57805160ff1916838001178555611069565b82800160010185558215611069579182015b8281111561106857825182559160200191906001019061104d565b5b5090506110769190611149565b5090565b50805460018160011615610100020316600290046000825580601f106110a057506110bf565b601f0160209004906000526020600020908101906110be9190611149565b5b50565b828054600181600116156101000203166002900490600052602060002090601f016020900481019282601f106110fb5780548555611138565b8280016001018555821561113857600052602060002091601f016020900482015b8281111561113757825482559160010191906001019061111c565b5b5090506111459190611149565b5090565b61116b91905b8082111561116757600081600090555060010161114f565b5090565b905600a165627a7a723058208b9cc026be96cd7be515e4f361ee4647f55f6cbb22d84d8834346e2c895cacac0029a165627a7a723058208d44dbe2d03eb5e09dea356a76a490bfe0094b0ccd7f047b71071a2214c5b2500029",
  "source": "pragma solidity ^0.4.19;\r\n\r\n\r\nimport \"./Website.sol\";\r\n\r\n/**\r\n * The WebFactory contract \r\n */\r\ncontract DNS {\r\n\r\n\tstring[] domain_name;\r\n\tuint public domain_name_length = 0;\r\n\r\n\taddress[] public website_address;\r\n    \r\n    // (DomainName => index.html hash)\r\n    mapping (string => string) domain_redirect_map;\r\n\r\n    // (Domain_name => Admin_Address)\r\n    mapping (string => address) domain_admin_map;\r\n\r\n    // (WebsiteAddress => Name)\r\n    mapping (address => string) address_domain_map;\r\n    // (Name => WebsiteAddress)\r\n    mapping (string => address) domain_address_map;\r\n\r\n    // Checks\r\n    mapping (string => bool) is_domain_acquired;\r\n\r\n    // Admin => address array of all website\r\n    mapping(address => address[]) admin_website_address_map;\r\n\r\n    modifier restricted(string _name) { \r\n    \trequire (msg.sender == domain_admin_map[_name]); \r\n    \t_; \r\n    }\r\n\r\n    modifier restricted_name(string _name) { \r\n    \trequire (is_domain_acquired[_name]);\r\n    \t_; \r\n    }\r\n    \r\n    \r\n\tfunction createWebsite (string _name) public {\r\n\t\trequire(!is_domain_acquired[_name]);\r\n\t\taddress _website_address = new Website(msg.sender, _name);\r\n\t\twebsite_address.push(_website_address);\r\n\t\tdomain_name.push(_name);\r\n\t\tdomain_name_length++;\r\n\t\tis_domain_acquired[_name] = true;\r\n\t\taddress_domain_map[_website_address] = _name;\r\n\t\tdomain_admin_map[_name] = msg.sender;\r\n\t\tadmin_website_address_map[msg.sender].push(_website_address);\r\n\t\tdomain_address_map[_name] = _website_address;\r\n\t}\t\r\n\r\n\tfunction mapDNS(string _name, string _file_address) public restricted(_name) {\r\n\t\trequire(is_domain_acquired[_name]);\r\n\t\tdomain_redirect_map[_name] = _file_address;\r\n\t}\r\n\r\n\tfunction transferOwnership(string _name, address _new_admin) public restricted(_name) {\r\n\t\trequire(is_domain_acquired[_name]);\r\n\t\tdomain_admin_map[_name] = _new_admin;\r\n\t}\r\n\r\n\t// Views\r\n\r\n\tfunction checkDomainAvaibility(string _name) public view returns (bool) {\r\n\t\treturn !is_domain_acquired[_name];\r\n\t}\r\n\r\n\tfunction getDomainAddress(string _name) public restricted_name(_name) view returns (string) {\r\n\t\treturn domain_redirect_map[_name];\r\n\t}\r\n\r\n\tfunction getDomainOwner(string _name) public restricted_name(_name) view returns (address) {\r\n\t\treturn domain_admin_map[_name];\r\n\t}\r\n\r\n\tfunction getWebsiteAddress(string _name) public restricted_name(_name) view returns(address) {\r\n\t\treturn domain_address_map[_name];\r\n\t}\r\n\r\n\tfunction getWebsiteName(address _address) public view returns(string) {\r\n\t\treturn address_domain_map[_address];\r\n\t}\r\n\r\n\tfunction getAllDomainAddress() public view returns (address []) {\r\n\t\treturn website_address;\r\n\t}\r\n\r\n\tfunction getUserWebsites() public view returns(address []){\r\n        return admin_website_address_map[msg.sender];\r\n    }\r\n    \r\n}\r\n \r\n",
  "sourcePath": "/mnt/e/code/bchosting_bitbucket/contracts/DNS.sol",
  "compiler": {
    "name": "solc",
    "version": "0.4.24+commit.e67f0147.Emscripten.clang"
  },
  "schemaVersion": "2.0.1",
  "updatedAt": "2018-10-27T09:19:04.185Z"
}