{
  "contractName": "Website",
  "abi": [
    {
      "constant": true,
      "inputs": [],
      "name": "file_length",
      "outputs": [
        {
          "name": "",
          "type": "uint256"
        }
      ],
      "payable": false,
      "stateMutability": "view",
      "type": "function"
    },
    {
      "constant": true,
      "inputs": [],
      "name": "website_name",
      "outputs": [
        {
          "name": "",
          "type": "string"
        }
      ],
      "payable": false,
      "stateMutability": "view",
      "type": "function"
    },
    {
      "constant": true,
      "inputs": [],
      "name": "admin",
      "outputs": [
        {
          "name": "",
          "type": "address"
        }
      ],
      "payable": false,
      "stateMutability": "view",
      "type": "function"
    },
    {
      "inputs": [
        {
          "name": "_admin",
          "type": "address"
        },
        {
          "name": "_name",
          "type": "string"
        }
      ],
      "payable": false,
      "stateMutability": "nonpayable",
      "type": "constructor"
    },
    {
      "constant": false,
      "inputs": [
        {
          "name": "_name",
          "type": "string"
        },
        {
          "name": "_hash",
          "type": "string"
        }
      ],
      "name": "addFile",
      "outputs": [],
      "payable": false,
      "stateMutability": "nonpayable",
      "type": "function"
    },
    {
      "constant": false,
      "inputs": [
        {
          "name": "_name",
          "type": "string"
        },
        {
          "name": "_hash",
          "type": "string"
        }
      ],
      "name": "updateFile",
      "outputs": [],
      "payable": false,
      "stateMutability": "nonpayable",
      "type": "function"
    },
    {
      "constant": false,
      "inputs": [
        {
          "name": "_name",
          "type": "string"
        }
      ],
      "name": "deleteFile",
      "outputs": [],
      "payable": false,
      "stateMutability": "nonpayable",
      "type": "function"
    },
    {
      "constant": true,
      "inputs": [
        {
          "name": "_name",
          "type": "string"
        }
      ],
      "name": "getFileHash",
      "outputs": [
        {
          "name": "",
          "type": "string"
        }
      ],
      "payable": false,
      "stateMutability": "view",
      "type": "function"
    },
    {
      "constant": true,
      "inputs": [],
      "name": "getFileLength",
      "outputs": [
        {
          "name": "",
          "type": "uint256"
        }
      ],
      "payable": false,
      "stateMutability": "view",
      "type": "function"
    },
    {
      "constant": true,
      "inputs": [
        {
          "name": "_index",
          "type": "uint256"
        }
      ],
      "name": "getFileName",
      "outputs": [
        {
          "name": "",
          "type": "string"
        }
      ],
      "payable": false,
      "stateMutability": "view",
      "type": "function"
    }
  ],
  "bytecode": "0x608060405260006006553480156200001657600080fd5b50604051620012ff380380620012ff8339810180604052810190808051906020019092919080518201929190505050816000806101000a81548173ffffffffffffffffffffffffffffffffffffffff021916908373ffffffffffffffffffffffffffffffffffffffff16021790555080600190805190602001906200009d929190620000a6565b50505062000155565b828054600181600116156101000203166002900490600052602060002090601f016020900481019282601f10620000e957805160ff19168380011785556200011a565b828001600101855582156200011a579182015b8281111562000119578251825591602001919060010190620000fc565b5b5090506200012991906200012d565b5090565b6200015291905b808211156200014e57600081600090555060010162000134565b5090565b90565b61119a80620001656000396000f300608060405260043610610099576000357c0100000000000000000000000000000000000000000000000000000000900463ffffffff168063248bfc3b1461009e578063464ed51c1461014d5780639526419a146101fc578063a62ffbc414610227578063a991005414610252578063cbcdc4ab146102bb578063ed7c238d1461034b578063f851a440146103f1578063f880680b14610448575b600080fd5b3480156100aa57600080fd5b5061014b600480360381019080803590602001908201803590602001908080601f0160208091040260200160405190810160405280939291908181526020018383808284378201915050505050509192919290803590602001908201803590602001908080601f016020809104026020016040519081016040528093929190818152602001838380828437820191505050505050919291929050505061052a565b005b34801561015957600080fd5b506101fa600480360381019080803590602001908201803590602001908080601f0160208091040260200160405190810160405280939291908181526020018383808284378201915050505050509192919290803590602001908201803590602001908080601f0160208091040260200160405190810160405280939291908181526020018383808284378201915050505050509192919290505050610802565b005b34801561020857600080fd5b506102116108e1565b6040518082815260200191505060405180910390f35b34801561023357600080fd5b5061023c6108eb565b6040518082815260200191505060405180910390f35b34801561025e57600080fd5b506102b9600480360381019080803590602001908201803590602001908080601f01602080910402602001604051908101604052809392919081815260200183838082843782019150505050505091929192905050506108f1565b005b3480156102c757600080fd5b506102d0610cdb565b6040518080602001828103825283818151815260200191508051906020019080838360005b838110156103105780820151818401526020810190506102f5565b50505050905090810190601f16801561033d5780820380516001836020036101000a031916815260200191505b509250505060405180910390f35b34801561035757600080fd5b5061037660048036038101908080359060200190929190505050610d79565b6040518080602001828103825283818151815260200191508051906020019080838360005b838110156103b657808201518184015260208101905061039b565b50505050905090810190601f1680156103e35780820380516001836020036101000a031916815260200191505b509250505060405180910390f35b3480156103fd57600080fd5b50610406610e44565b604051808273ffffffffffffffffffffffffffffffffffffffff1673ffffffffffffffffffffffffffffffffffffffff16815260200191505060405180910390f35b34801561045457600080fd5b506104af600480360381019080803590602001908201803590602001908080601f0160208091040260200160405190810160405280939291908181526020018383808284378201915050505050509192919290505050610e69565b6040518080602001828103825283818151815260200191508051906020019080838360005b838110156104ef5780820151818401526020810190506104d4565b50505050905090810190601f16801561051c5780820380516001836020036101000a031916815260200191505b509250505060405180910390f35b6000809054906101000a900473ffffffffffffffffffffffffffffffffffffffff1673ffffffffffffffffffffffffffffffffffffffff163373ffffffffffffffffffffffffffffffffffffffff1614151561058557600080fd5b8160606000829150600090506000825114156105a057600190505b6000811415156105af57600080fd5b6003856040518082805190602001908083835b6020831015156105e757805182526020820191506020810190506020830392506105c2565b6001836020036101000a038019825116818451168082178552505050505050905001915050908152602001604051809103902060009054906101000a900460ff1615151561063457600080fd5b836002866040518082805190602001908083835b60208310151561066d5780518252602082019150602081019050602083039250610648565b6001836020036101000a038019825116818451168082178552505050505050905001915050908152602001604051809103902090805190602001906106b3929190610ffa565b5060058590806001815401808255809150509060018203906000526020600020016000909192909190915090805190602001906106f1929190610ffa565b505060016003866040518082805190602001908083835b60208310151561072d5780518252602082019150602081019050602083039250610708565b6001836020036101000a038019825116818451168082178552505050505050905001915050908152602001604051809103902060006101000a81548160ff0219169083151502179055506006546004866040518082805190602001908083835b6020831015156107b2578051825260208201915060208101905060208303925061078d565b6001836020036101000a0380198251168184511680821785525050505050509050019150509081526020016040518091039020819055506006600081548092919060010191905055505050505050565b6000809054906101000a900473ffffffffffffffffffffffffffffffffffffffff1673ffffffffffffffffffffffffffffffffffffffff163373ffffffffffffffffffffffffffffffffffffffff1614151561085d57600080fd5b806002836040518082805190602001908083835b6020831015156108965780518252602082019150602081019050602083039250610871565b6001836020036101000a038019825116818451168082178552505050505050905001915050908152602001604051809103902090805190602001906108dc929190610ffa565b505050565b6000600654905090565b60065481565b6000806000809054906101000a900473ffffffffffffffffffffffffffffffffffffffff1673ffffffffffffffffffffffffffffffffffffffff163373ffffffffffffffffffffffffffffffffffffffff1614151561094f57600080fd5b6003836040518082805190602001908083835b6020831015156109875780518252602082019150602081019050602083039250610962565b6001836020036101000a038019825116818451168082178552505050505050905001915050908152602001604051809103902060009054906101000a900460ff1615156109d357600080fd5b60006003846040518082805190602001908083835b602083101515610a0d57805182526020820191506020810190506020830392506109e8565b6001836020036101000a038019825116818451168082178552505050505050905001915050908152602001604051809103902060006101000a81548160ff0219169083151502179055506003836040518082805190602001908083835b602083101515610a8f5780518252602082019150602081019050602083039250610a6a565b6001836020036101000a038019825116818451168082178552505050505050905001915050908152602001604051809103902060006101000a81549060ff02191690556004836040518082805190602001908083835b602083101515610b0a5780518252602082019150602081019050602083039250610ae5565b6001836020036101000a03801982511681845116808217855250505050505090500191505090815260200160405180910390205491506004836040518082805190602001908083835b602083101515610b785780518252602082019150602081019050602083039250610b53565b6001836020036101000a0380198251168184511680821785525050505050509050019150509081526020016040518091039020600090556002836040518082805190602001908083835b602083101515610be75780518252602082019150602081019050602083039250610bc2565b6001836020036101000a03801982511681845116808217855250505050505090500191505090815260200160405180910390206000610c26919061107a565b8190505b600160065403811015610c9957600560018201815481101515610c4957fe5b90600052602060002001600582815481101515610c6257fe5b906000526020600020019080546001816001161561010002031660029004610c8b9291906110c2565b508080600101915050610c2a565b6005600160065403815481101515610cad57fe5b906000526020600020016000610cc3919061107a565b60066000815480929190600190039190505550505050565b60018054600181600116156101000203166002900480601f016020809104026020016040519081016040528092919081815260200182805460018160011615610100020316600290048015610d715780601f10610d4657610100808354040283529160200191610d71565b820191906000526020600020905b815481529060010190602001808311610d5457829003601f168201915b505050505081565b606060065482101515610d8b57600080fd5b600582815481101515610d9a57fe5b906000526020600020018054600181600116156101000203166002900480601f016020809104026020016040519081016040528092919081815260200182805460018160011615610100020316600290048015610e385780601f10610e0d57610100808354040283529160200191610e38565b820191906000526020600020905b815481529060010190602001808311610e1b57829003601f168201915b50505050509050919050565b6000809054906101000a900473ffffffffffffffffffffffffffffffffffffffff1681565b60606003826040518082805190602001908083835b602083101515610ea35780518252602082019150602081019050602083039250610e7e565b6001836020036101000a038019825116818451168082178552505050505050905001915050908152602001604051809103902060009054906101000a900460ff161515610eef57600080fd5b6002826040518082805190602001908083835b602083101515610f275780518252602082019150602081019050602083039250610f02565b6001836020036101000a03801982511681845116808217855250505050505090500191505090815260200160405180910390208054600181600116156101000203166002900480601f016020809104026020016040519081016040528092919081815260200182805460018160011615610100020316600290048015610fee5780601f10610fc357610100808354040283529160200191610fee565b820191906000526020600020905b815481529060010190602001808311610fd157829003601f168201915b50505050509050919050565b828054600181600116156101000203166002900490600052602060002090601f016020900481019282601f1061103b57805160ff1916838001178555611069565b82800160010185558215611069579182015b8281111561106857825182559160200191906001019061104d565b5b5090506110769190611149565b5090565b50805460018160011615610100020316600290046000825580601f106110a057506110bf565b601f0160209004906000526020600020908101906110be9190611149565b5b50565b828054600181600116156101000203166002900490600052602060002090601f016020900481019282601f106110fb5780548555611138565b8280016001018555821561113857600052602060002091601f016020900482015b8281111561113757825482559160010191906001019061111c565b5b5090506111459190611149565b5090565b61116b91905b8082111561116757600081600090555060010161114f565b5090565b905600a165627a7a723058208b9cc026be96cd7be515e4f361ee4647f55f6cbb22d84d8834346e2c895cacac0029",
  "source": "pragma solidity ^0.4.19;\r\n\r\n/**\r\n * The Website contract\r\n */\r\ncontract Website {\r\n\r\n    address public admin;\r\n    string public website_name;\r\n\r\n    // (Filename => IPFS Hash)\r\n    mapping (string => string) file;\r\n\r\n    mapping (string => bool) is_file_name_acquired;\r\n    mapping (string => uint) file_index;\r\n    string[] file_name;\r\n    uint public file_length = 0;\r\n\r\n    modifier restricted() { \r\n    \trequire (msg.sender == admin); \r\n    \t_; \r\n    }\r\n\r\n    modifier emptyStringCheck(string name) {\r\n    \tbytes memory tempName = bytes(name); // Uses memory\r\n    \tuint flag=0;\r\n\t\tif (tempName.length == 0) {\r\n\t\t    flag=1;\r\n\t\t} \r\n\t\trequire(flag == 0);\r\n\t\t_;\r\n    }\r\n    \r\n\tfunction Website (address _admin, string _name) {\r\n\t\tadmin = _admin;\r\n\t\twebsite_name = _name;\r\n\t}\t\r\n\r\n\tfunction addFile(string _name, string _hash) public restricted emptyStringCheck(_name) {\r\n\t\trequire(!is_file_name_acquired[_name]);\r\n\t\tfile[_name] = _hash;\r\n\t\tfile_name.push(_name);\r\n\t\tis_file_name_acquired[_name] = true;\r\n\t\tfile_index[_name] = file_length;\r\n\t\tfile_length++;\r\n\t}\r\n\r\n\tfunction updateFile(string _name, string _hash) public restricted {\r\n\t\tfile[_name] = _hash;\r\n\t}\r\n\r\n\tfunction deleteFile(string _name) public restricted {\r\n\t\trequire(is_file_name_acquired[_name]);\r\n\t\tis_file_name_acquired[_name] = false;\r\n\t\tdelete is_file_name_acquired[_name];\r\n\t\tuint index = file_index[_name];\r\n\t\tdelete file_index[_name];\r\n\t\tdelete file[_name];\r\n\t\tfor(uint i=index; i<file_length-1;i++) {\r\n\t\t\tfile_name[i] = file_name[i+1];\r\n\t\t}\r\n\t\tdelete file_name[file_length-1];\r\n\t\tfile_length--;\r\n\t}\r\n\r\n\t// Views\r\n\r\n\tfunction getFileHash(string _name) public view returns(string) {\r\n\t\trequire(is_file_name_acquired[_name]);\r\n\t\treturn file[_name];\r\n\t}\r\n\r\n\tfunction getFileLength() public view returns(uint) {\r\n\t\treturn file_length;\r\n\t}\r\n\r\n\tfunction getFileName(uint _index) public view returns (string) {\r\n        require(_index < file_length);\r\n\t\treturn file_name[_index];\r\n\t}\r\n}\r\n\r\n\r\n",
  "sourcePath": "/mnt/e/code/bchosting_bitbucket/contracts/Website.sol",
  "compiler": {
    "name": "solc",
    "version": "0.4.24+commit.e67f0147.Emscripten.clang"
  },
  "schemaVersion": "2.0.1",
  "updatedAt": "2018-10-27T09:17:07.081Z"
}